8=FIX.4.4|9=122|35=D|34=215|49=CLIENT12|52=20100225-19:41:57.316|56=B|1=Marcel|11=13346|21=1|40=2|44=5|54=1|59=0|60=20100225-19:39:52.020|10=072|
8=FIX.4.2|9=196|35=X|49=A|56=B|34=12|52=20100318-03:21:11.364|262=A|268=2|279=0|269=0|278=BID|55=EUR/USD|270=1.37215|15=EUR|271=2500000|346=1|279=0|269=1|278=OFFER|55=EUR/USD|270=1.37224|15=EUR|271=2503200|346=1|10=171|
8=FIX.4.2|9=42|35=0|49=A|56=B|34=12|52=20100304-07:59:30|10=185|
8=FIX.4.2|9=97|35=6|49=BKR|56=IM|34=14|52=20100204-09:18:42|23=115685|28=N|55=SPMI.MI|54=2|44=2200.75|27=S|25=H|10=248|
8=FIX.4.4|9=122|35=D|34=215|49=CLIENT12|52=20100225-19:41:57.316|56=B|1=Marcel|11=13346|21=1|40=2|44=5|54=1|59=0|60=20100225-19:39:52.020|10=072|
8=FIX.4.4|9=117|35=AD|34=2|49=A|50=1|52=20100219-14:33:32.258|56=B|57=M|263=1|568=1|569=0|580=1|75=20100218|60=20100218-00:00:00.000|10=202|
8=FIX.4.4|9=94|35=3|34=214|49=A|50=U1|52=20100304-09:42:23.130|56=AB|128=B1|45=176|58=txt|371=15|372=X|373=1|10=058|
8=FIX.4.4|9=70|35=4|49=A|56=XYZ|34=129|52=20100302-19:38:21|43=Y|57=LOL|123=Y|36=175|10=192|
8=FIX.4.2|9=76|35=A|34=702|49=ABC|52=20100130-10:52:40.663|56=XYZ|95=4|96=1234|98=0|108=60|10=134|
8=FIX.4.2|9=59|35=A|49=XYZ|56=ABC|34=710|52=20100130-10:52:36|98=0|108=60|10=103|
8=FIX.4.2|9=51|35=0|34=703|49=ABC|52=20100130-10:53:40.830|56=XYZ|10=249|
8=FIX.4.2|9=47|35=0|49=XYZ|56=ABC|34=711|52=20100130-10:53:36|10=057|
8=FIX.4.2|9=266|35=8|49=ABC|56=XYZ|50=AZ12|57=NA|34=833|52=20100130-08:00:51.992|55=GLD|48=PL11YA|167=FUT|207=LIFFE|1=AA1|37=ABC1|17=INDNTHDOG|58=Fill|200=201009|205=13|32=25|151=0|14=25|54=2|40=2|77=O|59=0|150=2|20=0|39=2|442=1|44=99.06|38=25|31=99.06|6=99.06|60=20100130-08:00:52|10=136|
8=FIX.4.2|9=262|35=8|49=ABC|56=XYZ|50=AZ12|57=NA|34=834|52=20100130-08:00:52.008|55=GLD|48=PL11YA|167=FUT|207=LIFFE|1=AA1|37=ABC2|17=93OOO|58=Fill|200=201009|205=13|32=25|151=0|14=25|54=2|40=2|77=O|59=0|150=2|20=0|39=2|442=1|44=99.06|38=25|31=99.06|6=99.06|60=20100130-08:00:52|10=053|
