8=FIX.4.2|9=178|35=AE|56=LSEHub|49=BROKERX|128=LSETR|34=2175|52=20120126-15:15:54|918=GBP|31=89.0000000|64=20120126|828=1|60=20120126-13:32:49|32=6|22=4|571=124|43=N|570=N|150=0|48=GB0007188757|10=206|
8=FIX.4.2|9=112|35=AR|49=LSEHub|56=BROKERX|115=LSETR|34=2006|52=20120126-15:15:54|370=20120126-15:15:54.822|571=124|150=0|939=0|10=059|
8=FIX.4.2|9=130|35=AE|49=LSEHub|56=LSETR|115=BROKERX|34=2287|43=N|52=20120330-12:14:09|370=20120330-12:14:09.816|571=00008661533TRLO1-1-1-0|150=H|10=074|
8=FIX.4.2|9=109|35=AR|34=2486|49=LSETR|52=20120330-12:14:10.379|56=LSEHub|128=BROKERX|150=H|571=00008661533TRLO1-1-1-0|939=0|10=073|
8=FIX.4.2|9=175|35=AE|49=BROKERX|56=LSEHub|34=17|52=20120202-16:04:44|128=LSETR|918=EUR|31=89.0000000|64=20120202|828=1007|60=20120202-16:04:44|32=6|22=4|571=1698|570=N|150=0|48=AT0000785555|10=076|
8=FIX.4.2|9=111|35=AR|49=LSEHub|56=BROKERX|115=LSETR|34=16|52=20120202-16:04:44|370=20120202-16:04:45.257|571=1698|150=0|939=0|10=015|
